{
  "transactions": [
    {
      "hash": "0xaface31f796bb0507c1ea7cadd630a81331e45e481deb81b4cf19f8c24523d25",
      "transactionType": "CALL",
      "contractName": null,
      "contractAddress": "0x779877A7B0D9E8603169DdbD7836e478b4624789",
      "function": "transferAndCall(address,uint256,bytes)",
      "arguments": [
        "0x8103B0A8A00be2DDC778e6e7eaa21791Cd364625",
        "3000000000000000000",
        "0x00000000000000000000000000000000000000000000000000000000000029aa"
      ],
      "transaction": {
        "type": "0x02",
        "from": "0x560b5dc6d0d2d87da46ec44b1be0a8d6a83b503a",
        "to": "0x779877a7b0d9e8603169ddbd7836e478b4624789",
        "gas": "0x1b43f",
        "value": "0x0",
        "data": "0x4000aea00000000000000000000000008103b0a8a00be2ddc778e6e7eaa21791cd36462500000000000000000000000000000000000000000000000029a2241af62c00000000000000000000000000000000000000000000000000000000000000000060000000000000000000000000000000000000000000000000000000000000002000000000000000000000000000000000000000000000000000000000000029aa",
        "nonce": "0x1b",
        "accessList": []
      },
      "additionalContracts": [],
      "isFixedGasLimit": false
    }
  ],
  "receipts": [
    {
      "transactionHash": "0xaface31f796bb0507c1ea7cadd630a81331e45e481deb81b4cf19f8c24523d25",
      "transactionIndex": "0x5",
      "blockHash": "0x1f2dcc918034d83dc7cbad9b14f1f3cb539c3a6ca583078a2cad1b70b11fac94",
      "blockNumber": "0x55a838",
      "from": "0x560B5Dc6d0D2d87da46Ec44b1be0A8D6A83b503A",
      "to": "0x779877A7B0D9E8603169DdbD7836e478b4624789",
      "cumulativeGasUsed": "0x3309f",
      "gasUsed": "0x12a4a",
      "contractAddress": null,
      "logs": [
        {
          "address": "0x779877A7B0D9E8603169DdbD7836e478b4624789",
          "topics": [
            "0xddf252ad1be2c89b69c2b068fc378daa952ba7f163c4a11628f55a4df523b3ef",
            "0x000000000000000000000000560b5dc6d0d2d87da46ec44b1be0a8d6a83b503a",
            "0x0000000000000000000000008103b0a8a00be2ddc778e6e7eaa21791cd364625"
          ],
          "data": "0x00000000000000000000000000000000000000000000000029a2241af62c0000",
          "blockHash": "0x1f2dcc918034d83dc7cbad9b14f1f3cb539c3a6ca583078a2cad1b70b11fac94",
          "blockNumber": "0x55a838",
          "transactionHash": "0xaface31f796bb0507c1ea7cadd630a81331e45e481deb81b4cf19f8c24523d25",
          "transactionIndex": "0x5",
          "logIndex": "0x2",
          "removed": false
        },
        {
          "address": "0x779877A7B0D9E8603169DdbD7836e478b4624789",
          "topics": [
            "0xe19260aff97b920c7df27010903aeb9c8d2be5d310a2c67824cf3f15396e4c16",
            "0x000000000000000000000000560b5dc6d0d2d87da46ec44b1be0a8d6a83b503a",
            "0x0000000000000000000000008103b0a8a00be2ddc778e6e7eaa21791cd364625"
          ],
          "data": "0x00000000000000000000000000000000000000000000000029a2241af62c00000000000000000000000000000000000000000000000000000000000000000040000000000000000000000000000000000000000000000000000000000000002000000000000000000000000000000000000000000000000000000000000029aa",
          "blockHash": "0x1f2dcc918034d83dc7cbad9b14f1f3cb539c3a6ca583078a2cad1b70b11fac94",
          "blockNumber": "0x55a838",
          "transactionHash": "0xaface31f796bb0507c1ea7cadd630a81331e45e481deb81b4cf19f8c24523d25",
          "transactionIndex": "0x5",
          "logIndex": "0x3",
          "removed": false
        },
        {
          "address": "0x8103B0A8A00be2DDC778e6e7eaa21791Cd364625",
          "topics": [
            "0xd39ec07f4e209f627a4c427971473820dc129761ba28de8906bd56f57101d4f8",
            "0x00000000000000000000000000000000000000000000000000000000000029aa"
          ],
          "data": "0x000000000000000000000000000000000000000000000000000000000000000000000000000000000000000000000000000000000000000029a2241af62c0000",
          "blockHash": "0x1f2dcc918034d83dc7cbad9b14f1f3cb539c3a6ca583078a2cad1b70b11fac94",
          "blockNumber": "0x55a838",
          "transactionHash": "0xaface31f796bb0507c1ea7cadd630a81331e45e481deb81b4cf19f8c24523d25",
          "transactionIndex": "0x5",
          "logIndex": "0x4",
          "removed": false
        }
      ],
      "status": "0x1",
      "logsBloom": "0x0000001400000000000000000000000000000000000000020000000002000000000000000000800000000000000000000000000000000000000000000000000000000000000000000000000800000000000000000000000008002000000000000000000000000000000000000000000000000000400000000000001000000000000000000c000020000000000000800010000020000000000000000000000000000000000000000000800000000000000000000000000000000400000000000000000002000000000000080000000000000000000000000100000000000000000000000000000000000000800000000000000000000000000000000080000000",
      "type": "0x2",
      "effectiveGasPrice": "0xfcb68d43"
    }
  ],
  "libraries": [],
  "pending": [],
  "returns": {},
  "timestamp": 1712064464,
  "chain": 11155111,
  "commit": "8a0e960"
}